:020000040800F2
:10000000E00D0020F1020008F9020008FB020008E0
:10001000FD020008FF0200080103000800000000C4
:1000200000000000000000000000000003030008C2
:10003000050300080000000007030008090300088A
:100040000B0300080B0300080B0300080B03000858
:100050000B0300080B0300080B0300080B03000848
:100060000B0300080B0300080B0300080B03000838
:100070000B0300080B0300080B0300080B03000828
:100080000B0300080B0300080B030008000000002E
:100090000000000000000000000000000B0300084A
:1000A0000B0300080B0300080B0300080B030008F8
:1000B0000B0300080B0300080B0300080B030008E8
:1000C0000B0300080B0300080B0300080B030008D8
:1000D0000B0300080B0300080B03000800000000DE
:1000E0000B0300080B0300080B03000800000000CE
:1000F0000000000000000000000000000B030008EA
:10010000000000000B0300080B0300080B030008AD
:1001100000000000000000000000000000000000DF
:100120000B0300080B0300080B0300080B03000877
:100130000B030008000000000000000000000000A9
:100140000000000000000000000000000B03000899
:100150000B0300080B0300080B0300080B03000847
:100160000B0300080B030008000000000000000063
:10017000000000000000000000000000000000007F
:10018000000000000B030008000000000000000059
:100190000B03000800F002F800F09AF814A696E8A5
:1001A000000CB244B344DA4501D100F091F8BAE84A
:1001B0000F000FA696E83000A5EB040504EB060738
:1001C000AAEB0704A7F101074FEA15154FEA34140B
:1001D000A4F10104AC4201D300F07AF813F0010F4E
:1001E00018BFFB1A43F0010300F001F8DBE71847E2
:1001F000C4550000D45500007047000000230024BF
:1002000000250026103A28BF78C1FBD8520728BF26
:1002100030C148BF0B6070476E2900F0E381702940
:1002200000F02583662904F0F487652904F0F1873E
:10023000672904F0EE87612904F0ED8703681B0A43
:1002400028BF41F08001692900F09081642900F005
:100250008D81752900F08A816F2900F0B382782999
:1002600000F0F182E92900F04D82E42900F04A8291
:10027000F52900F04782EF2900F0B082F82900F05C
:10028000F0820368DB0928BF41F08001632901F097
:100290002380732901F02880E32901F03380F329BA
:1002A00001F03880002070471FB504F0A5FF01F071
:1002B00087F804000020002104F088FF401C6060E3
:1002C0000020002104F06CFFE0601FBD10B510BDE0
:1002D00001F048F81146FFF7E7FF03F0DBFB01F000
:1002E00025F903B4FFF7F2FF03BC01F06BF900003E
:1002F0000948804709480047FEE7FEE7FEE7FEE7BA
:10030000FEE7FEE7FEE7FEE7FEE7FEE704480549F5
:10031000054A064B704700000D1A000895010008B9
:10032000E0070020E00D0020E0090020E0090020A7
:100330000FB41CB5084B06AA7B446946009005988B
:1003400000F069F904460020694600F077F920467C
:100350001CBC5DF814FB000001030000401ECAB283
:1003600010F8011F8A4202D00029F9D100207047FD
:1003700040EA010310B59B070FD1042A0DD310C822
:1003800008C9121F9C42F8D020BA19BA884201D974
:10039000012010BD4FF0FF3010BD1AB1D30703D0BC
:1003A000521C07E0002010BD10F8013B11F8014B72
:1003B0001B1B07D110F8013B11F8014B1B1B01D18E
:1003C000921EF1D1184610BD032A40F2308010F081
:1003D000030C00F0158011F8013BBCF1020F6244E0
:1003E00098BF11F801CB00F8013B38BF11F8013B71
:1003F000A2F1040298BF00F801CB38BF00F8013B1E
:1004000011F0030300F00283083AC0F0088051F8AD
:10041000043B083A51F804CBA0E80810F5E7121D98
:100420005CBF51F8043B40F8043BAFF30080D207B7
:1004300024BF11F8013B11F801CB48BF11F8012B83
:1004400024BF00F8013B00F801CB48BF00F8012BA6
:1004500070474FF0000200B5134694469646203987
:1004600022BFA0E80C50A0E80C50B1F12001BFF46D
:10047000F7AF090728BFA0E80C5048BF0CC05DF8D3
:1004800004EB890028BF40F8042B08BF704748BF21
:1004900020F8022B11F0804F18BF00F8012B704795
:1004A00070477047704770B5044685690068C1069B
:1004B00001D5302600E02026C00707D070BDD4E962
:1004C000012130469047206A401C20626D1EF6D5FF
:1004D00070BD70B5044685690078C00707D170BD4E
:1004E000D4E9012120209047206A401C20626D1E23
:1004F000F6D570BD09684A0501D540B27047C905F7
:10050000FCD500B2704709684A0501D5C0B27047F2
:10051000C905FCD580B2704770B50C460546012A66
:1005200005D02878800600D5EA69002302E001237F
:1005300005E05B1C934202D2E05C0028F9D1A86977
:10054000E618C01AA861286A184428622846FFF7EE
:10055000AAFF04E0D5E9012114F8010B9047B44249
:10056000F8D32846FFF7B5FF70BD00002DE9F04134
:100570000646002410687529314616A510D0FFF7ED
:10058000B9FF002802DA404213A507E031688A0764
:1005900001D512A502E0490704D511A5012401E007
:1005A000FFF7B1FF00210A2206F1240709E0B0FBA2
:1005B000F2FCB0FBF2F302FB1C003030785418461A
:1005C000491C0028F3D123462A463046BDE8F041B5
:1005D00000F093BA000000002D0000002B00000086
:1005E0002000000011680268006A530501D50870F8
:1005F0000AE0D30501D5088006E0130603D5C2172B
:10060000C1E9000200E008600120704701694A1C4E
:1006100002610878704700B58FB0CDE90131002143
:10062000059105497944CDE903101146684600F06B
:1006300029F90FB000BD0000E5FFFFFF0A6802F8CE
:10064000010B0A60704700002DE9FF5F15468A46DE
:100650000446DFF8AC80F8440027D8E900103E4695
:10066000CDE9001010E03AF816106A4602A800F032
:1006700055FE411C07D02178890603D5E269391857
:1006800091420DD80744761C2078800602D5E06997
:10069000B84205DDAE42E6DB3AF816000028E2D1AA
:1006A000A069C01BA0612046FFF7FDFED8E900103D
:1006B000CDE90010002017E03AF818106A4602A8A9
:1006C00000F02CFEB0F1FF3F81460BD000250DF16C
:1006D000080B05E0D4E901211BF8050090476D1CCB
:1006E0004D45F7D308F10100B0428046E4DB206AB3
:1006F000384420622046FFF7ECFEBDE8FF9F000073
:10070000C24B00002DE9F0418046D21D22F00702C5
:100710000025D2E90002F52915A614D0011E72F1B8
:10072000000106DA0023D0EB030063EB020211A6FE
:1007300008E0D8F800108B0701D50FA602E04907A2
:1007400001D50EA601251146002408F1240704E076
:1007500000F08EF930323A55641C50EA0102F7D1AC
:100760002B46324621464046BDE8F04100F0C5B96F
:10077000000000002D0000002B0000002000000001
:1007800030B4002100F1240408E002F00705D2088B
:10079000303542EA4372DB086554491C52EA0305CE
:1007A000F3D10468002310A2250708D504F0200423
:1007B0000C4304D0C46901230CA2641EC46130BC84
:1007C00000F09BB910B5044621461068FFF79BFE68
:1007D00002462046BDE810400023D1E7D21D22F09A
:1007E0000701D1E90023CBE7000000003000000042
:1007F000F0B40D460188090502D5214C7C4402E085
:100800001F4C7C440E34002100F1240608E002F065
:100810000F071209E75D42EA03721B097754491C6E
:1008200052EA0307F3D102780023120704D5702D92
:1008300006D009B1022311342246F0BC00F05DB9A4
:1008400001231034F8E770B504460D4621461068C0
:10085000FFF759FE024629462046BDE870400023B6
:10086000C6E7D21D22F00703D3E90023C0E70368DF
:10087000126843F0200303600823C3610023B7E735
:10088000244A00002DE9F05F894604464FF0000A33
:10089000DFF874B1FB44C0F820A02046E168884727
:1008A000002874D0252806D0D4E901219047206A79
:1008B000401C2062F1E700265F462046E168884739
:1008C0002028054607DB312D05D2781910F8200CB9
:1008D00008B10643F1E7B00701D526F00406C4F8D5
:1008E0001CA00027C4F818A02A2D09D0284604F01F
:1008F0004FFC38B304EB8708303DC8F8185019E0B6
:1009000059F8041B204604EB87029161E16888478F
:10091000012F054618D1E069002820DA26F02006CC
:100920001DE0D8F8180000EB800005EB40003038DF
:10093000C8F818002046E1688847054604F028FCFE
:100940000028EED1012F0AD02E2D08D12046E168D3
:1009500088477F1C0546022F46F02006C4DBA069AD
:10096000002803DA404246F00106A061F00701D0FA
:1009700026F010066C2D0BD0682D09D04C2D39D0E7
:100980006A2D35D0742D35D07A2D33D016E038E06D
:10099000E1682F4620468847B842054609D16C2FAA
:1009A00026D04FF48060E16806432046884705461C
:1009B00004E06C2F1AD04FF4807006430DB3A5F1FC
:1009C0004100192802D8203546F400664A462946D7
:1009D000204626604E46FFF71FFC80B101280BD051
:1009E000F61D26F0070000F1080956E74020E4E76D
:1009F0008020D8E70020D6E706F104094DE7284615
:100A000052E7206ABDE8F09FB449000010B5203AD3
:100A1000C0F00B80B1E81850A0E81850B1E81850A9
:100A2000A0E81850203ABFF4F5AF5FEA027C24BF7B
:100A3000B1E81850A0E8185044BF18C918C0BDE864
:100A400010405FEA827C24BF51F8043B40F8043B2D
:100A500008BF7047D20728BF31F8023B48BF11F8E2
:100A6000012B28BF20F8023B48BF00F8012B70473C
:100A700030B5B0F10A0271F100034FEA900E4EEA70
:100A8000817EB0EB0E0061EB91014FEA101E4EEA41
:100A9000017E10EB0E0041EB11114FEA102E4EEAD1
:100AA000016E10EB0E0041EB11214FEA104E4EEAA1
:100AB000014E10EB0E0041EB1141401841F10001D5
:100AC0004FEAD00040EA41704FEAD1014FEA810479
:100AD00044EA907410EB800544EB01046D1944EB7B
:100AE0000404521BA3414FF0000348BF0A3200D553
:100AF00030BD401C41F1000130BD2DE9F0470D46ED
:100B000099469246044600F124080168880604D5F7
:100B1000E06921F01001216000E00120A84201DD20
:100B2000471B00E00027A1697A1902EB0900081AA7
:100B3000A0612078C00602D42046FFF7B4FC00264E
:100B400008E0D4E901211AF806009047206A401C09
:100B5000761C20624E45F4DB2078C0060AD520467C
:100B6000FFF7A1FC06E0D4E9012130209047206A7C
:100B7000401C2062381EA7F10107F4DC07E0D4E92D
:100B8000012118F805009047206A401C2062281EA9
:100B9000A5F10105F3DC2046FFF79BFC2078000659
:100BA00002D50220BDE8F0870120FBE72DE9FF4FC9
:100BB0000C461E464FF0FF378BB0D2E90001DDF83E
:100BC00060800A908A46C1F30A5505B93D46002166
:100BD00008464FF00000BAF1000F00F4400005DABB
:100BE00000EB80004FF4400101EA50004FEA9059B9
:100BF000B9F1010F00DDB9460A9850EA4A000ED05B
:100C000044F61050A5F2FF3545432F14B8F1000FFC
:100C10001ED07542291E1EDDC9F100021CE0B8F18C
:100C2000010F4FF0000001D0302103E0F24305E056
:100C30002154401CB042FBDB3046002200212154ED
:100C40000B99C1F80880C1E900200FB0BDE8F08F12
:100C5000BD1B6D1CDEE74A4600DA694206A800F0BB
:100C6000F3FB06AB93E8070003AB83E807005046AD
:100C70000A9903F0ACFE8DE80700A0F500501F387C
:100C800000900398002D0ADD42F21F014A460844F5
:100C9000002303A90390684604F016F909E0A0F5C3
:100CA00000504A461F38002303A90390684604F009
:100CB00020F98DE807000004000C03D04FF0FF304E
:100CC000410800E01046B8F1000F03D00022009266
:100CD00015461EE0751E05D4FFF7CAFE3032625578
:100CE0006D1EF9D5B3460122084302D000227F1CB5
:100CF00004E02078302801D100227F1E002A0997C5
:100D000084D01DE0112D07DAFFF7B2FE30326255B4
:100D10006D1C50EA0102F5D1084302D00098C8B119
:100D20000EE00021681E05E0235C625C63542254DF
:100D3000401E491C8142F7DBAB46A81B401E0990B0
:100D4000002004F80B000B98099AC0F80880C0E94D
:100D5000002B7AE711264FF0000857E72DE9F04FF6
:100D600088460446D21D22F0070191B0D1E9000166
:100D7000CDE90A0104F0F4F902460B98C00F01D046
:100D80002D2007E02068810701D52B2002E02021DB
:100D900001EAC000032A099001D0072A05DB0346B7
:100DA0004146204600F010FB0BE12078800601D57B
:100DB000E06900E00620B8F1650F814606D0B8F181
:100DC000660F18D0B8F1670F70D131E00020B9F18B
:100DD000110F009001DB112301E009F101030AAAC0
:100DE00001A90CA8FFF7E2FEDDE90C70002609F16D
:100DF0000105834647E001204B4600904FF0004735
:100E00000AAA01A90CA8FFF7D1FEDDE90DB00C99E3
:100E10005D46002610B909F101000D18B9EB050077
:100E200003D4C0F1FF3609F10105A5EB09002BE061
:100E3000B9F1010F01DA4FF001090020B9F1110FEA
:100E40000090484601DD112300E003460AAA01A9EB
:100E50000CA8FFF7ABFEDDE90C704D46002683467B
:100E6000207800070AD4AB4500DA5D4601A8012DC1
:100E700004DD411911F8011C302907D04F4502DA71
:100E800017F1040F04DA012082460FE06D1EEEE731
:100E9000002F02DCED1B3E4403E0781CA84200DD7D
:100EA0007D1CB81B00F1010A4FF0004720780007B5
:100EB00003D4AA4501DB4FF0FF3A0021B7F1004F00
:100EC0000DF143088DF8431024D002202B23002F6E
:100ED00001DA7F422D230A21021EA0F1010000DC6D
:100EE0005FB197FBF1FC97FBF1F201FB1C7C17460D
:100EF0000CF1300C08F801CDEEE7A8F10100037009
:100F00002188090501D5452100E06521A0F10108EE
:100F100000F8011C09980FA9A1EB0807FF1D00B1FB
:100F20000120411901EBEA70A1693844081A401EFA
:100F3000A0612078C00602D42046FFF7B4FA0998D1
:100F400028B1D4E901219047206A401C2062207812
:100F5000C00622D52046FFF7A6FA1EE0002E04DBCD
:100F6000B34502DD01A8805D00E03020D4E9012115
:100F70009047206A401C2062761CAAF101005FEABB
:100F8000000A0AD100F01CFAC0680168405CD4E98C
:100F900001219047206A401C2062281EA5F101050E
:100FA000DCDC07E0D4E9012118F8010B9047206A46
:100FB000401C2062381EA7F10107F3DC2046FFF732
:100FC00088FA032011B041E62DE9F04F04460D46A2
:100FD000D21D22F0070089B0D0E900974846394673
:100FE00004F0BEF80246F80F01D02D2307E0206878
:100FF000810701D52B2302E0202101EAC0038DF8EF
:1010000020300BB1012000E00020032A824601D0ED
:10101000072A04DB2946204600F0D6F93FE1207874
:10102000800601D40D2500E0E569C7F30A560D2DB1
:1010300049DA00214FEA175B08464FF00000002F05
:1010400000F4400007DA00EB80004FF4400100EBB1
:10105000D07001EA60008115012901DD4FF0FF31F8
:1010600000224FEA850CBCF1180F06D31346ACF1F1
:1010700018004FF08052C24003E04FF4801323FA6F
:101080000CF30CF10C0CBCF1200F04D3ACF1200CD0
:1010900009FA0CF001E007FA0CF000294FF00048C3
:1010A00001DD18B90FE00ED140450CD319EB020950
:1010B0005F4121B9404502D19F4329EA0209BBEBB8
:1010C000175F00D0761C2088000502D57B48784445
:1010D00002E07A487844193808AA302302F80A3026
:1010E000037C0AF10101002E0AF1020A53546A46F8
:1010F00002DC4FF0300101E04FF031014FF0010808
:101100008DF8001002D0A6F2FF3603E059EA47013D
:1011100000D06B4E002D02DC2178090704D54FF07A
:1011200002082E218DF80110C44600210BE0C7F300
:1011300003433F01C35C491C6D1E02F808300529BA
:1011400008F1010801DA002DF1DC00210CE000EBD0
:101150001973491C1B786D1E082902F808304FEAE4
:10116000091908F1010801DA002DF0DC21688B066D
:1011700002D516E0A8F10108E04505DD02EB080301
:1011800013F8013C302BF5D0B8F1000F09DD02EB6C
:10119000080313F8013C2E2B03D1090701D4A8F151
:1011A0000108002D05DD3E2102F808106D1E08F132
:1011B0000108407C002E02F8080008F1010804DA5A
:1011C0002D20764202F8080002E02B2002F80800E9
:1011D0000A214FF47A70864208F101080BDB96FB76
:1011E000F0F3303302F8083096FBF0F308F1010811
:1011F00000FB136601E0642E0CDB642096FBF0F329
:10120000303302F8083096FBF0F308F1010800FBD8
:10121000136601E00A2E06DB96FBF1F0303002F88F
:10122000080008F1010896FBF1F001FB1060303076
:1012300002F80800A16908F1010808EB050202EBB9
:101240000A00081AA0612078C00602D42046FFF7E1
:101250002AF9216A08AE01EB0A00206204E0D4E911
:10126000012116F8010B9047BAF1010AF7D2207854
:10127000C00602D52046FFF716F96E4609E016F8BB
:10128000010B3E280FD0D4E901219047206A401C71
:101290002062B8F10108F2D22046FFF71AF909B02E
:1012A0000320BDE8F08F206A2844206203E0D4E9DF
:1012B0000121302090476D1EEBD3F8E79E410000DE
:1012C00002FCFFFF10B5436913B1AFF3008001E0EA
:1012D000FFF722F9012010BD127800F124010A70F5
:1012E00000224A700122EDE711684FF0FF32E9E772
:1012F00010B5436913B1AFF3008001E0FFF7A4F923
:10130000012010BD128800F1240182840022C284D1
:101310000122EDE711684FF0FF32E9E72DE9F041D6
:1013200016460C46054600F043F8036893F80101A1
:10133000012807D0FF2C12D8185D80B101202C7035
:10134000BDE8F081D3F807013246214603F20713C6
:10135000C7182846BC46BDE8F041002360474FF05F
:10136000FF30EDE7754600F0EBF8AE460500694644
:10137000534620F00700854618B020B5FEF7C6FF9B
:10138000BDE820404FF000064FF000074FF0000886
:101390004FF0000BAC46ACE8C009ACE8C009ACE8C3
:1013A000C009ACE8C00921F007018D467047000074
:1013B00010B500F005F8001D10BD00BF113E000083
:1013C00000487047200000202DE9F0411F460446E8
:1013D00003260168072A01F4006004DB08B116A5A2
:1013E00005E016A503E008B115A500E015A521F05C
:1013F00010002060A069C01EA0610FB1401EA06156
:101400002046FFF750F84FB1D4E901213846904704
:10141000206A401C2062C01C206206E0206AFAE7B5
:10142000D4E9012115F8010B9047761EF8D2204629
:10143000FFF74FF8BDE8F0814E414E006E616E003F
:10144000494E4600696E66002DE9F0478146164612
:101450008AB0354878440DC88DE80D00324878448C
:10146000801C03AC0DC884E80D0041F69B30084495
:10147000372190FBF1F290FBF1F5A5F1800501FB1E
:1014800012041B3C02D56442012000E00020DFF87A
:1014900098A080460027FA44AAF1BE0A0EE0E007B1
:1014A0000AD03246684607EB470101230AEB810167
:1014B00003F01FFD8DE8070064107F1C002CEED1A7
:1014C000194F7F44AE3F19E0E80715D007EB041031
:1014D0000DF1180A90E80E008AE80E00C068F0428C
:1014E00001D1981908903246012306A903A803F0F8
:1014F00000FD03AB83E807006D10641C002DE3D1F1
:101500004FF0010332466946B8F1000F03A802D03C
:1015100003F0DAFC01E003F0ECFCC9E90001C9F8D2
:1015200008200AB0BDE8F087A83E000010B50446C8
:10153000AFF300802046BDE81040FEF7D2BE0000A9
:10154000004870470000002030B44FF0013C50F8D4
:10155000042B51F8043BCCFA52F4D51A20D1FCB933
:1015600050F8042B51F8043BCCFA52F4D51A17D199
:10157000B4B950F8042B51F8043BCCFA52F4D51A04
:101580000ED16CB950F8042B51F8043BCCFA52F44C
:10159000D51A05D1002CDAD030BC4FF000007047CE
:1015A00029BAB1FA81F111F01801D1F1200084407B
:1015B000F2D1CA40CB4012F0FF0213F0FF0330BC5F
:1015C000D01A704701491820ABBEFEE72600020082
:1015D0007047000043F64401C4F20201086840F479
:1015E0008070086043F63001C4F20201086840F0E0
:1015F000010008600021C4F20201086840F20F32C5
:101600001043086042F20801C4F2010100200860A2
:1016100042F21002C4F20102106847F23F0318437D
:101620001060086840F001000860704781B08DF8D4
:10163000030042F23401C4F20101086820F01F00E7
:1016400008609DF8032008681043086042F2080112
:10165000C4F20101086840F080400860FFE742F2F0
:101660000000C4F2010000688007002801D4FFE7F1
:10167000F5E742F24C00C4F20100006880B201B00C
:101680007047000080B582B044F20040C4F2000010
:10169000006810F0280F0CD0FFE744F20440C4F2B9
:1016A000000000688DF807009DF8070000F0EEF9D3
:1016B000FFE702B080BD000081B00090FFE7009816
:1016C0000078A8B1FFE7FFE744F20040C4F2000051
:1016D00000680006002801D4FFE7F5E70098411CE8
:1016E0000091007844F20441C4F200010860E6E78A
:1016F00001B0704780B584B0039000200290FFE7EE
:1017000002980399884215D2FFE700200190FFE775
:10171000019842F2CF01884207D8FFE7FFF7B2FFF6
:10172000FFE7019801300190F2E7FFE702980130EE
:101730000290E5E704B080BD80B586B004900391C7
:10174000002002908DF80700FFE70298039943F606
:1017500098225143884242D2FFE744F20040C4F24B
:101760000000006810F0280F35D0FFE744F2044075
:10177000C4F2000000688DF806009DF8060000F035
:1017800085F99DF8060004999DF80720895C884238
:1017900010D1FFE79DF8070001308DF8070004988D
:1017A0009DF80710405C20B9FFE701208DF8170075
:1017B00019E00FE09DF8060004990978884204D1E9
:1017C000FFE701208DF8070003E000208DF80700F7
:1017D000FFE7FFE7FFE7029801300290B5E700203E
:1017E0008DF81700FFE79DF8170006B080BD0000D8
:1017F00080B582B045F2DC40C0F6000000F05EF932
:1018000045F2EF50C0F60000FFF756FFC820FFF783
:1018100071FF45F2CE50C0F60000FFF74DFFFA20F1
:101820000190FFF767FF45F2C050C0F60000FFF7D8
:1018300043FF0198FFF75EFF45F2FA40C0F6000053
:1018400000F03CF945F26930C0F60000FFF734FFC4
:101850000198FFF74FFF45F2C140C0F6000000F0CD
:101860002DF902B080BD000080B582B0002001904B
:10187000FFE701984CF2BF61C0F22D0188421BD8EE
:10188000FFE744F20040C4F20000006810F0280FA7
:101890000ED0FFE744F20440C4F2000000688DF867
:1018A00003009DF8030000F0F1F800200190FFE72D
:1018B000019801300190DCE702B080BD80B586B0B0
:1018C0008DF8170004918DF80F200A2002909DF8E2
:1018D000170040F0400000F071F89DF8130000F090
:1018E0006DF89DF8120000F069F89DF8110000F005
:1018F00065F89DF8100000F061F89DF80F0000F009
:101900005DF8FFE7FF2000F059F88DF80E00FFE7C3
:101910009DF80E10002009060029019008D5FFE768
:10192000029801380290002818BF01200190FFE7BB
:101930000198C0070028E5D1FFE79DF80E0006B02A
:1019400080BD000043F64401C4F20201086840F47F
:101950008050086043F63001C4F20201086840F08C
:10196000010008600021C4F20201086820F47F3001
:101970000860086840F4D43008602021C4F20201F5
:1019800008686FF31F50086008680022C5F25052C3
:10199000104308601421C4F20201086840F480700A
:1019A000086043F20001C4F201014FF4477008607F
:1019B000086840F0400008607047000081B08DF872
:1019C0000300FFE743F20800C4F20100006880074B
:1019D000002801D4FFE7F5E79DF8030043F20C016E
:1019E000C4F201010860FFE743F20800C4F20100FD
:1019F0000068C00708B9FFE7F6E743F20C00C4F23D
:101A000001000068C0B201B0704700004EF6885176
:101A1000CEF20001086840F47000086070470000D2
:101A200043F64401C4F20201086840F01000086067
:101A300043F63001C4F20201086840F0010008607A
:101A40000021C4F20201086820F4701008600868E0
:101A500040F4201008602421C4F20201086820F438
:101A60007F600860086840F4EE60086041F2080199
:101A7000C4F201018B20086041F20C01C4F20101A3
:101A8000086842F2080210430860704781B08DF880
:101A90000300FFE741F20000C4F201000068000605
:101AA000002801D4FFE7F5E79DF8030041F20401A7
:101AB000C4F20101086001B07047000080B582B037
:101AC0000190FFE70198007838B1FFE70198411CC9
:101AD00001910078FFF7DAFFF4E702B080BD000063
:101AE00043F64001C4F20201086840F40030086087
:101AF00043F63001C4F20201086840F001000860BA
:101B00000021C4F20201086820F0F00008600868B3
:101B100040F0A00008602021C4F20201086820F40F
:101B20007F400860086840F4EE40086044F20841D5
:101B3000C4F200018B20086044F20C41C4F20001A1
:101B4000086842F20C0210430860704780B586B006
:101B50000490039104990020087104994FF0FF301C
:101B6000C8610498039902F01FFC18B1FFE7042034
:101B700005908CE0049800F22E2001F043FFADF8B0
:101B80000800049890F830008DF807009DF80700D1
:101B9000EB280AD0FFE79DF80700E92805D0FFE70A
:101BA0009DF80700E82868D1FFE7BDF808004AF66D
:101BB000552188420ED1FFE70498823045F29C718E
:101BC000C0F600010822FEF7D3FB18B9FFE700209A
:101BD00005905CE004983B3001F014FFADF80A007A
:101BE000049890F83D008DF80700BDF80A00411EEA
:101BF000084241D1FFE7BDF80A00B0F5007F3BDBAA
:101C0000FFE7BDF80A00B0F5007F35DCFFE79DF87F
:101C1000070088B3FFE79DF80700411E08422BD15B
:101C2000FFE704983E3001F0EDFE28B3FFE704988B
:101C300090F84000013801281ED8FFE70498413091
:101C400001F0E0FEC0B1FFE70498433001F0DAFE96
:101C50007F2808DCFFE70498503001F0E5FEB0F57E
:101C6000803F09D3FFE70498463001F0CBFE18B15E
:101C7000FFE7002005900AE0FFE7BDF808104AF6EC
:101C800055220320914208BF02200590FFE70598E6
:101C900006B080BD83B0019000910098023800909A
:101CA0000098019949690239884203D3FFE700206F
:101CB000029007E00198C26A4089009900FB012068
:101CC0000290FFE7029803B07047000080B588B02B
:101CD00006900591069800680090059880B9FFE786
:101CE0000098C0680290029830B1FFE7029800990E
:101CF0004969884203D3FFE701200290FFE71EE015
:101D00000698059901F088FD04900498012803D8ED
:101D1000FFE701200790CBE00498013018B9FFE7F6
:101D200004980790C4E0049800994969884203D256
:101D3000FFE704980790BBE005980290FFE7009842
:101D4000006918B9FFE700200790B1E00020039078
:101D500002980599884233D1FFE702980130039039
:101D6000039800994969884203D3FFE70220039052
:101D7000FFE70698039901F04FFD049004980128AD
:101D800004D0FFE70498013018B9FFE704980790E2
:101D90008EE0049898B1FFE70098C068049004981A
:101DA000022809D3FFE7049800994969884203D2C1
:101DB000FFE704980290FFE700200390FFE7FFE7AA
:101DC0000398A8BBFFE702980390FFE70398013050
:101DD000039003980099496988420BD3FFE70220DA
:101DE000039003980299884203D9FFE700200790E7
:101DF0005EE0FFE70698039901F00EFD0490049859
:101E000008B9FFE713E00498012804D0FFE704981D
:101E1000013018B9FFE70498079049E00398029948
:101E2000884203D1FFE70020079041E0CEE7FFE7BB
:101E3000009803994FF0FF3202F0E6FA8DF80700A0
:101E40009DF8070058B9FFE7059840B1FFE70098F3
:101E50000599039A02F0D8FA8DF80700FFE79DF87C
:101E60000700C8B9FFE703980099C86000980069A7
:101E700088B1FFE7009908694969023988420AD8A0
:101E8000FFE700990869013808610099487940F036
:101E900001004871FFE708E09DF8071001200129C3
:101EA00008BF4FF0FF300390FFE703980790FFE76C
:101EB000079808B080BD000080B58CB00A900991E9
:101EC0000998006803900A982030079007994FF00E
:101ED0002030C1F807004860086000200490059099
:101EE00008200690FFE7039805994A1C0592405C7C
:101EF0008DF823009DF82300202801DCFFE793E004
:101F00009DF823002F2805D0FFE79DF823005C28CB
:101F10001BD1FFE7FFE703980599415C01202F29BA
:101F2000029009D0FFE703980599405C5C38B0FA4D
:101F300080F040090290FFE70298C00720B1FFE758
:101F4000059801300590E6E76EE09DF823002E2805
:101F500005D0FFE704980699884212D3FFE7069858
:101F60000B2805D0FFE79DF823002E2804D0FFE7BB
:101F700006208DF82F0088E0082004900B200690A2
:101F8000B1E79DF8230000F085F830B3FFE7039830
:101F900005994A1C0592405C8DF822009DF82200AC
:101FA00000F0B0F830B1FFE7049806990139884293
:101FB00004D3FFE706208DF82F0066E09DF823008C
:101FC0000799049A531C049388549DF8220007999A
:101FD000049A531C0493885425E09DF8231045F27D
:101FE000A570C0F60000FEF7B9F920B1FFE70620A2
:101FF0008DF82F0049E09DF8230061280BDBFFE7F7
:102000009DF823007A2806DCFFE79DF8230020389E
:102010008DF82300FFE79DF823000799049A531CCD
:1020200004938854FFE75EE70398059908440999EB
:102030000860049820B9FFE706208DF82F0024E0FF
:1020400007980078E52804D1FFE707990520087074
:10205000FFE79DF8231001202129019009DBFFE70C
:1020600003980599415C00202129B8BF0120019007
:10207000FFE7019800F00100002818BF042007992D
:10208000C87200208DF82F00FFE79DF82F000CB0DC
:1020900080BD000082B08DF803009DF8030045F27A
:1020A0001831C0F600010978884225DBFFE79DF86A
:1020B000030045F21831C0F600014978884203DC7C
:1020C000FFE7012001901AE09DF8030045F2183166
:1020D000C0F60001897888420DDBFFE79DF8030018
:1020E00045F21831C0F60001C978884203DCFFE7E9
:1020F0000120019003E0FFE700200190FFE7019835
:1021000002B0704782B08DF803009DF8030045F2DD
:102110001831C0F60001097988423CDBFFE79DF8E1
:10212000030045F21831C0F600014979884203DC0A
:10213000FFE70120019031E09DF8030045F21831DE
:10214000C0F60001897988420DDBFFE79DF80300A6
:1021500045F21831C0F60001C979884203DCFFE777
:10216000012001901AE09DF8030045F21831C0F6F5
:102170000001097A88420DDBFFE79DF8030045F274
:102180001831C0F60001497A884203DCFFE70120DC
:10219000019003E0FFE700200190FFE7019802B003
:1021A0007047000080B586B00590049105980068DE
:1021B00001900598002100F0D9F98DF80F009DF8E5
:1021C0000F0098BBFFE700200290FFE701980599F8
:1021D000896902F0E9F88DF80F009DF80F0008B149
:1021E000FFE722E00598C0690078E52805D0FFE701
:1021F0000598C069007848B9FFE70298013002905D
:102200000499884201D1FFE70FE002E0002002902C
:10221000FFE70598012100F0C1F88DF80F00FFE7F6
:102220009DF80F000028D1D0FFE7FFE79DF80F00D1
:10223000042804D1FFE707208DF80F00FFE79DF881
:102240000F0006B080BD000080B588B006900591F3
:10225000069802F049FB20B1FFE701208DF81F002E
:102260003EE006980599FFF715FD0490049806993D
:10227000C861069830304FF40071FEF7EAF806980E
:10228000303001900120029000200390FFE7039975
:10229000069842890020914200900ED2FFE70698EE
:1022A00040780199049A039B1A44029B00F012FBA8
:1022B000B0FA80F040090090FFE70098C00730B105
:1022C000FFE7FFE70299039808440390DFE70398CC
:1022D00006994989401A18BF01208DF81F00FFE7B1
:1022E0009DF81F0008B080BD80B586B004900498AA
:1022F000006802900498002100F038F98DF80F0072
:102300009DF80F0028B1FFE79DF80F008DF817002A
:1023100040E0FFE702980499896902F045F88DF8DA
:102320000F009DF80F0008B1FFE72EE00498C06988
:1023300000788DF807009DF8070020B9FFE704201A
:102340008DF80F0021E00499C869C07A00F03F00C1
:1023500088710498C069C07A0007002809D4FFE793
:102360000499C86920310B22FEF702F808B9FFE78B
:102370000BE00498002100F011F88DF80F00FFE742
:102380009DF80F000028C5D0FFE79DF80F008DF8DD
:102390001700FFE79DF8170006B080BD80B586B036
:1023A000049003910498006800900498006920301C
:1023B00002900298B0F5001F04D3FFE704990020B3
:1023C0008861FFE70498806920B9FFE704208DF851
:1023D00017008BE0BDF80800C005002877D1FFE7A3
:1023E00004998869013088610498406978B9FFE7E9
:1023F000029900980089B0EB511F07D8FFE70499B4
:102400000020886104208DF817006FE05EE00299DB
:1024100000984089013810EA512F56D1FFE70498FF
:10242000416901F0F9F901900198012804D8FFE70A
:1024300002208DF8170059E00198013020B9FFE71C
:1024400001208DF8170051E00198009949698842F0
:1024500031D3FFE7039838B9FFE70499002088617A
:1024600004208DF8170041E004984169FFF72EFC25
:102470000190019820B9FFE707208DF8170035E09B
:102480000198012804D1FFE702208DF817002DE004
:102490000198013020B9FFE701208DF8170025E0F1
:1024A00000980199FFF7D0FE20B1FFE701208DF8D9
:1024B00017001BE0FFE70198049948610098019913
:1024C000FFF7E8FB04998861FFE7FFE7FFE7029861
:1024D00004990861009802996FF35F210844303035
:1024E0000499C86100208DF81700FFE79DF81700D8
:1024F00006B080BD80B586B0059005980068039051
:1025000005980121FFF74EFE8DF813009DF813008A
:1025100038BBFFE703980599896901F045FF8DF8FD
:1025200013009DF81300D8B9FFE70598C169019120
:1025300000200290C861886148610861C8608860B5
:1025400048600860059BD969186A5A6AD3F8273031
:10255000C1F807304A600860039901200871FFE75D
:10256000FFE79DF8130006B080BD000080B586B07F
:102570000490039104980068009003990020B0EB48
:10258000515F05D1FFE79DF80C00C00620B1FFE7C1
:1025900002208DF8170072E00398049908610498EE
:1025A00080680190019848B9FFE7009800780328F7
:1025B00004DBFFE70098806A0190FFE7019880B98B
:1025C000FFE7039900980089B0EB511F04D8FFE79B
:1025D00002208DF8170052E00098806A0499886103
:1025E00030E00098408940020290FFE7039802998A
:1025F000884220D3FFE70498019901F00DF901907A
:102600000198013020B9FFE701208DF8170036E06E
:102610000198022806D3FFE701980099496988428A
:1026200004D3FFE702208DF8170028E002990398F1
:10263000401A0390DAE700980199FFF72BFB049901
:102640008861FFE70198049948610498806920B97E
:10265000FFE702208DF8170011E0039A04998869BA
:1026600000EB52208861009803996FF35F210844C2
:1026700030300499C86100208DF81700FFE79DF8FD
:10268000170006B080BD000080B582B08DF806004E
:1026900042F2107000909DF8060020B1FFE7012083
:1026A0008DF8070051E01821C4F202014FF4807048
:1026B00008600A208DF80500FFE79DF8050050B17D
:1026C000FFE7FF20FFF77AF9FFE79DF805000138E3
:1026D0008DF80500F1E71821C4F202014FF0807077
:1026E0000860002195220846FFF7E8F8012818D174
:1026F000FFE7FFE70098411E009188B1FFE7372010
:1027000000210122FFF7DAF8012808DCFFE7292081
:1027100000210122FFF7D2F808B9FFE700E0E9E75E
:10272000FFE71821C4F202014FF480700860FF2017
:10273000FFF744F9009820B9FFE701208DF8070062
:1027400003E000208DF80700FFE79DF8070002B0C6
:1027500080BD000080B582B08DF806008DF80510B0
:1027600000929DF8060020B1FFE704208DF80700D5
:102770001EE09DF80500B8B9FFE71821C4F2020178
:102780004FF080700860FFE7FF20FFF717F908B9E6
:10279000FFE7F9E71821C4F202014FF480700860E6
:1027A00000208DF8070003E001208DF80700FFE707
:1027B0009DF8070002B080BD80B588B08DF81E007E
:1027C0000691059204939DF81E0018B9FFE704983E
:1027D00020B9FFE704208DF81F0063E01821C4F240
:1027E00002014FF080700860059911200122FFF767
:1027F00065F8002849D1FFE748F2A060C0F2010067
:102800000390FFE7FF20FFF7D9F801460020FE29DB
:10281000019008D0FFE70398411E0391002818BFDC
:1028200001200190FFE70198C00708B1FFE7E9E741
:10283000039848B3FFE700200290FFE702990020C9
:10284000B0EB512F0CD1FFE7FF20FFF7B7F8069947
:102850004A1C06920870FFE7029801300290EDE7EB
:10286000FF200090FFF7AAF80098FFF7A7F800985C
:102870001822C4F202024FF480711160FFF79EF833
:1028800000208DF81F000DE0FFE71821C4F20201BF
:102890004FF480700860FF20FFF790F801208DF85A
:1028A0001F00FFE79DF81F0008B080BD81B08DF8C4
:1028B00002009DF8020020B1FFE701208DF803001F
:1028C00003E000208DF80300FFE79DF8030001B04E
:1028D0007047000080B586B08DF816000491039211
:1028E00002939DF8160018B9FFE7029820B9FFE798
:1028F00004208DF8170058E01821C4F202014FF0AF
:1029000080700860039918200122FEF7D7FF002885
:102910003ED1FFE7FF20FFF751F8FE20FFF74EF80A
:1029200000200190FFE701990020B0EB512F0BD15F
:10293000FFE70498411C04910078FFF73FF8FFE798
:10294000019801300190EEE7FF200090FFF736F884
:102950000098FFF733F80098FFF730F800F01F00F9
:10296000052814D1FFE7FFE7FF20FFF727F808B994
:10297000FFE7F9E71821C4F202014FF48070086004
:10298000FF20FFF71BF800208DF817000DE0FFE790
:102990001821C4F202014FF480700860FF20FFF795
:1029A0000DF801208DF81700FFE79DF8170006B01D
:1029B00080BD000080B584B00390039800F05AFCFD
:1029C0008DF80B009DF80B0078B9FFE7039801A97B
:1029D00001F0C4FF8DF80B009DF80B0020B9FFE754
:1029E000039900200860FFE7FFE79DF80B0004B0A3
:1029F00080BD000080B588B0069005918DF8132049
:102A000005980090684600F0A5FF02900298B0F18A
:102A1000FF3F04DCFFE70B208DF81F003BE002992D
:102A200040F26000C2F2000050F8210003900398C9
:102A300058B1FFE7029A40F26001C2F200010020A3
:102A400041F8220003990870FFE7069878B1FFE784
:102A50000298069948700699002008700698029A14
:102A600040F26001C2F2000141F82200FFE79DF848
:102A7000130020B9FFE700208DF81F000BE005A828
:102A800006A9002201F088FA8DF807009DF80700DA
:102A90008DF81F00FFE79DF81F0008B080BD000003
:102AA00080B59AB0189017918DF85B20189820B9CE
:102AB000FFE709208DF8670091E19DF85B0000F0C9
:102AC0003F008DF85B009DF85B2017A80AA901F074
:102AD00063FA8DF85A009DF85A00002840F0728180
:102AE000FFE70A98189908600A980B9017990BA8A5
:102AF00000F012FE8DF85A009DF85A0058B9FFE711
:102B00009DF857000006002804D5FFE706208DF841
:102B10005A00FFE7FFE79DF85B0010F01C0F79D02B
:102B2000FFE79DF85A0090B1FFE79DF85A0004288E
:102B300006D1FFE70BA8FFF7DDFC8DF85A00FFE791
:102B40009DF85B0040F008008DF85B0015E09DF8F3
:102B50005B004007002804D5FFE708208DF85A00E5
:102B60000AE09DF8320010F0110F04D0FFE70720B3
:102B70008DF85A00FFE7FFE7FFE79DF85A000028AD
:102B800047D1FFE79DF85B000007002841D5FFE72C
:102B900000F0DCFE099012980E30099901F006FE53
:102BA00012981630099901F001FE0A98129900F066
:102BB00055FF089012992020C8720A981299002295
:102BC000029201F015FE029912981C3001F0EEFD00
:102BD0000A99012008710898D0B1FFE70A98C069E6
:102BE000079008990BA8002201F050FD8DF85A00BB
:102BF0009DF85A0058B9FFE70A98079901F0D4FBED
:102C00008DF85A00089801380A99C860FFE7FFE775
:102C1000FFE71FE09DF85A00D8B9FFE79DF83200A2
:102C2000C006002804D5FFE704208DF85A000FE005
:102C30009DF85B008007002809D5FFE79DF832006A
:102C4000C00720B1FFE707208DF85A00FFE7FFE734
:102C5000FFE7FFE79DF85A00A8B9FFE79DF85B0082
:102C60000007002807D5FFE79DF85B0040F0400013
:102C70008DF85B00FFE70A98C069189908621298FE
:102C800018994862FFE79DF85A00002840F09980A3
:102C9000FFE70A98129900F0E1FE189988601298EF
:102CA0001C3000F0C1FE1899C8600A98C0881899B5
:102CB00088809DF85B001899087418990020487462
:102CC0001899C86118994861189828304FF4007114
:102CD000FDF7BFFB9DF85B008006002870D5FFE77D
:102CE0001898C06800286BD0FFE71899C868486139
:102CF0000A984089400206901898806805901898B4
:102D0000C0680490FFE79DF85A100020019041B977
:102D1000FFE70499069A0020914288BF01200190A4
:102D2000FFE70198C007D8B1FFE71898059900F0B0
:102D300073FD05900598012804D8FFE702208DF85F
:102D40005A00FFE70598013020B9FFE701208DF810
:102D50005A00FFE7FFE706990498401A0490D2E76B
:102D60000598189988619DF85A0040BBFFE7BDF8A7
:102D70001000C00518B3FFE70A980599FEF78AFF0F
:102D80000390039820B9FFE702208DF85A0015E060
:102D90000398049900EB51201899C8610A9840786B
:102DA000189A02F12801D2690123FFF705FD20B12D
:102DB000FFE701208DF85A00FFE7FFE7FFE7FFE795
:102DC000FFE7FFE79DF85A0020B1FFE718990020C0
:102DD0000860FFE79DF85A008DF86700FFE79DF84F
:102DE00067001AB080BD000082B080B5B0B03393E8
:102DF00032922F902E9100208DF845002F991AA81D
:102E000001F036FC32A82D90FFE72E98411C2E9140
:102E100000788DF847009DF8470008B9FFE720E2E9
:102E20009DF84700252806D0FFE79DF847101AA80F
:102E300001F0C4FBE9E700201790169020208DF8E0
:102E400046004FF0FF3014902E98411C2E910078D0
:102E50008DF847009DF8470030280AD1FFE7302061
:102E60008DF846002E98411C2E9100788DF8470071
:102E70000EE09DF847002D2809D1FFE702201690AB
:102E80002E98411C2E9100788DF84700FFE7FFE750
:102E90009DF847002A280CD1FFE72D98011D2D91A0
:102EA000006817902E98411C2E9100788DF84700ED
:102EB00024E0FFE79DF8471000203029089008DB48
:102EC000FFE79DF8471000203A29B8BF012008907D
:102ED000FFE70898C00780B1FFE7179800EB800173
:102EE0009DF8470000EB4100303817902E98411CA8
:102EF0002E9100788DF84700DCE7FFE79DF847004A
:102F00002E283FD1FFE72E98411C2E9100788DF896
:102F100047009DF847002A280CD1FFE72D98011D96
:102F20002D91006814902E98411C2E9100788DF8F8
:102F3000470026E000201490FFE79DF8471000208E
:102F40003029079008DBFFE79DF8471000203A2959
:102F5000B8BF01200790FFE70798C00780B1FFE7DF
:102F6000149800EB80019DF8470000EB41003038D9
:102F700014902E98411C2E9100788DF84700DCE7C4
:102F8000FFE7FFE79DF847006C280BD1FFE7169895
:102F900040F0040016902E98411C2E9100788DF878
:102FA0004700FFE79DF8470008B9FFE759E19DF8A2
:102FB0004700583801460691202800F2958006996E
:102FC000DFE801F01A929292929292929292111DDF
:102FD0001792929292929292929292149292922537
:102FE000921792921A000220159083E00820159003
:102FF00080E00A2015907DE0102015907AE02D9851
:10300000011D2D9101781AA801F0D8FAFDE62D983E
:10301000011D2D9100681290129820B9FFE70DF163
:1030200045001290FFE700201890FFE712981899CA
:10303000405C28B1FFE7FFE7189801301890F5E7EA
:103040001498002808D4FFE718981499884203D9E7
:10305000FFE714981890FFE7FFE700209DF858104D
:1030600089070029059008D4FFE71899179A0020CE
:10307000914238BF01200590FFE70598C00750B185
:10308000FFE79DF846101AA801F098FAFFE7189894
:1030900001301890E1E7FFE71298017800200490D2
:1030A00041B1FFE71498411E1491002818BF012078
:1030B0000490FFE70498C00740B1FFE71298411C55
:1030C000129101781AA801F079FAE5E7FFE718985C
:1030D000411C18911799884205D2FFE71AA82021B0
:1030E00001F06CFAF3E790E69DF847101AA801F09A
:1030F00065FA8AE69DF858004007002806D5FFE7E4
:103100002D98011D2D910068139013E09DF8470044
:10311000642806D1FFE72D98011D2D9100680390CA
:1031200005E02D98011D2D9100680390FFE703989D
:103130001390FFE79DF8470064280ED1FFE79DF844
:103140004F000006002808D5FFE71398404213906F
:10315000169840F001001690FFE700201990FFE755
:10316000139A1599B2FBF1F000FB112030308DF865
:10317000440015991398B0FBF1F013909DF84400AA
:103180003A280CDBFFE79DF847000721782808BFA5
:1031900027219DF8440008448DF84400FFE79DF87E
:1031A0004400199A511C199109A98854FFE71399F1
:1031B0000020029039B1FFE719990020202938BF7B
:1031C00001200290FFE70298C0070028C8D1FFE75E
:1031D0009DF85800C00738B1FFE7199A501C1990A4
:1031E00009A92D208854FFE719981890FFE70020BF
:1031F0009DF8581089070029019008D4FFE7189915
:10320000179A0020914238BF01200190FFE70198F2
:10321000C00750B1FFE79DF846101AA801F0CEF99B
:10322000FFE7189801301890E1E7FFE71998411E71
:10323000199109A8415C1AA801F0C0F9FFE7199893
:103240000028F3D1FFE7FFE71898411C1891179960
:10325000884205D2FFE71AA8202101F0AFF9F3E771
:10326000D3E51AA801F0E0F930B0BDE8804002B023
:103270007047000080B586B00490049802A901F060
:103280006DFB8DF80F009DF80F0000285ED1FFE761
:103290000498007C4006002857D5FFE70498007C7E
:1032A0000006002815D5FFE702984078049A02F13D
:1032B0002801D2690123FFF70DFB20B1FFE70120B0
:1032C0008DF8170047E00499087C00F07F0008742F
:1032D000FFE702980499096A01F066F88DF80F007B
:1032E0009DF80F0080BBFFE70498406A01900199A8
:1032F000C87A40F02000C872049A01991068926858
:1033000001F076FA01981C300499C96801F04EFA70
:1033100001981630009000F019FB0146009801F06A
:1033200045FA01981230002101F02AFA0299012091
:103330000871029801F076FA8DF80F000499087C64
:1033400000F0BF000874FFE7FFE7FFE79DF80F00FC
:103350008DF81700FFE79DF8170006B080BD00004C
:1033600080B58EB00C900B910A9209930B98019046
:103370000999002008600C9807A901F0EFFA8DF870
:1033800023009DF8230030B9FFE70C98407C8DF8AE
:10339000230028B1FFE79DF823008DF8370046E1B0
:1033A0000C98007C8007002804D4FFE707208DF8E4
:1033B00037003CE10C9841690A980844884205D2DC
:1033C000FFE70C984069C0430A90FFE7FFE70A98BF
:1033D000002800F02381FFE70C98808AC0050028B0
:1033E00040F0D980FFE70C9841690798408901387F
:1033F00000EA512002900298D8BBFFE70C98406980
:1034000068B9FFE70C9880680690069830B9FFE726
:103410000C980021FEF75AFC0690FFE705E00C9897
:103420008169FEF753FC0690FFE7069808B9FFE7AD
:10343000F4E00698012806D1FFE70C9902204874B1
:103440008DF83700F3E00698013030B9FFE70C99AA
:10345000012048748DF83700E9E006980C998861DE
:103460000C98806820B9FFE706980C998860FFE700
:10347000FFE70C98007C0006002817D5FFE70798A7
:1034800040780C9A02F12801D2690123FFF722FA51
:1034900030B1FFE70C99012048748DF83700C6E081
:1034A0000C99087C00F07F000874FFE707980C99DE
:1034B0008969FEF7EFFB0590059830B9FFE70C9995
:1034C000022048748DF83700B1E00299059808444D
:1034D00005900A98400A03900398E0B3FFE702982A
:1034E0000399084407994989884206D9FFE7079854
:1034F00040890299401A0390FFE7079840780199A4
:10350000059A039BFFF7E6F930B1FFE70C9901201C
:1035100048748DF837008AE00C98C0690599401A04
:103520000399884213D2FFE70C9A02F1280001990F
:10353000D269059BD21A01EB42214FF40072FCF7CD
:1035400043FF0C99087C00F07F000874FFE70398A4
:10355000400204903EE00C98C0690599884216D05C
:10356000FFE70C98C1684069884210D2FFE70798CE
:1035700040780C992831059A0123FFF71DF930B1E5
:10358000FFE70C99012048748DF837004FE005984B
:103590000C99C861FFE70C9840696FF35F20C0F594
:1035A0000070049004980A99884203D9FFE70A98AA
:1035B0000490FFE70C9841696FF35F2108442830BD
:1035C0000199049AFCF700FF0C99087C40F08000F8
:1035D0000874FFE704990A98401A0A90049A099916
:1035E0000868104408600499019808440190049AFE
:1035F0000C994869104448610C98C1684069884238
:1036000004D9FFE70C984069009003E00C98C0686B
:103610000090FFE700980C99C860D8E60C99087CE8
:1036200040F04000087400208DF83700FFE79DF857
:1036300037000EB080BD000080B58CB00A900991B3
:103640000A980021FEF782FA0890089802280AD00A
:10365000FFE70898022803D8FFE7099818B9FFE7A1
:1036600008980B9055E000200790FFE70798032883
:1036700011D8FFE70A98079900EB011000F5FB70DD
:1036800000F0D2F9079A03A941F82200FFE7079852
:1036900001300790EAE7099820B1FFE7099801385F
:1036A000029002E000200290FFE702980790FFE7F7
:1036B000079903A850F8210048B1FFE70A98079A34
:1036C00003A951F82210FEF741FA019002E003200D
:1036D0000190FFE701980890FFE70999002000900A
:1036E00079B9FFE7089900200229009009D3FFE784
:1036F0000798411C07910020042938BF0120009041
:10370000FFE70098C0070028D2D1FFE708980B9088
:10371000FFE70B980CB080BD80B586B00590049192
:10372000059800680290FFE70498017801202F298E
:10373000019008D0FFE7049800785C38B0FA80F078
:1037400040090190FFE70198C00720B1FFE7049806
:1037500001300490E8E7059900208860049800781B
:103760001F280BD8FFE70599802081F82B000598CA
:103770000021FEF7FBFE8DF80F0048E0FFE70598FB
:1037800004A9FEF799FB8DF80F009DF80F0008B112
:10379000FFE73BE0059890F82B008DF80E000598A8
:1037A000FEF7A2FD8DF80F009DF80F0088B1FFE72E
:1037B0009DF80F0004280BD1FFE79DF80E0040078D
:1037C000002804D4FFE705208DF80F00FFE7FFE78E
:1037D0001CE09DF80E004007002801D5FFE715E02A
:1037E00005988079C006002804D4FFE705208DF8ED
:1037F0000F000BE00298059909696FF35F210144FE
:10380000303100F02BF905998860B8E7FFE79DF8A3
:103810000F0006B080BD000080B588B0079006910B
:103820000798006802900698022806D3FFE70698DA
:1038300002994969884203D3FFE70120039081E0A0
:103840004FF0FF3003900298007801460191012863
:1038500008D0FFE70198022845D0FFE70198032828
:1038600055D06BE006980490049800EB500004904B
:103870000298416A049A01EB522100F095FD08B1CB
:10388000FFE75EE0029804990A466FF35F22104456
:103890000131049190F8300005900298416A049A31
:1038A00001EB522100F080FD08B1FFE749E00298EA
:1038B00004996FF35F21084490F83010059840EAAE
:1038C000012005909DF81800C00720B1FFE705987A
:1038D0000009009004E005986FF31F300090FFE7A7
:1038E000009803902DE00298416A069A01EB12219C
:1038F00000F05AFD08B1FFE723E002989DF8181088
:1039000000EB4100303000F07DF8039019E00298A0
:10391000416A069A01EBD21100F046FD08B1FFE7BB
:103920000FE00298069901F07F0100EB8100303032
:1039300000F07AF820F07040039002E0012003903C
:10394000FFE7FFE7039808B080BD00000020C5F640
:103950006940704787B0059005980068049003900F
:10396000049820B9FFE74FF0FF30069047E0FFE7EB
:103970000398411C039100788DF80B00FFE79DF838
:103980000B1000202129009007D3FFE79DF80B00C2
:103990003A3818BF01200090FFE70098C0070028C0
:1039A000E6D1FFE79DF80B003A2825D1FFE701207B
:1039B000019004980078302810DBFFE70498007825
:1039C00039280BDCFFE7049802300399884205D1BF
:1039D000FFE70498007830380190FFE7019801284C
:1039E00004DBFFE74FF0FF30069008E003980599ED
:1039F00008600198069002E000200690FFE7069814
:103A000007B0704782B0019001984078ADF802008D
:103A1000BDF802100198007840EA0120ADF80200DC
:103A2000BDF8020002B0704782B001900198C078E2
:103A3000009000990198807840EA01200090009958
:103A40000198407840EA01200090009901980078A0
:103A500040EA01200090009802B0704780B584B021
:103A60000390029102981A30FFF7CCFF019003985F
:103A7000007803280AD1FFE702981430FFF7C2FF4D
:103A80000146019840EA01400190FFE7019804B027
:103A900080BD000080B5AEB000202D90FDF7C0FFC6
:103AA000FEF71EF8FDF796FDFDF74CFFFDF7A0FEB3
:103AB00040F29020C2F2000045F2B371C0F600015E
:103AC0000122FEF797FF8DF8B3009DF8B30038B9D7
:103AD000FFE745F2CC30C0F60000FDF7EFFF06E04F
:103AE00045F2F630C0F60000FDF7E8FFFFE70020E2
:103AF0002B904FF47A712A9129902890FFE728980B
:103B0000012804DBFFE7289801382890FFE7002010
:103B1000ADF89E0040F6FF71ADF89C10ADF89A002C
:103B2000ADF89810ADF89600ADF894102390FFE72B
:103B3000239840F6B73188425CDCFFE70020FDF7B0
:103B400075FDADF89200BDF89200BDF89E10884258
:103B500005DDFFE7BDF89200ADF89E00FFE7BDF878
:103B60009200BDF89C10884205DAFFE7BDF892008C
:103B7000ADF89C00FFE70120FDF758FDADF892007D
:103B8000BDF89200BDF89A10884205DDFFE7BDF848
:103B90009200ADF89A00FFE7BDF89200BDF89810CA
:103BA000884205DAFFE7BDF89200ADF89800FFE71C
:103BB0000420FDF73BFDADF89200BDF89200BDF882
:103BC0009610884205DDFFE7BDF89200ADF896003B
:103BD000FFE7BDF89200BDF89410884205DAFFE7D0
:103BE000BDF89200ADF89400FFE7FFE7239801309D
:103BF00023909DE7FDF746FDBDF89E00BDF89C10A3
:103C0000401AADF88A00BDF89A00BDF89810401A25
:103C1000ADF88800BDF89600BDF89410401AADF8D4
:103C200086002B9801302B90299800F596702990EA
:103C3000BDF88A00ADF8840045F25960C0F6000076
:103C40002090BDF88800BDF8841088420ADDFFE7A7
:103C5000BDF88800ADF8840045F26460C0F600004D
:103C60002090FFE7BDF88600BDF8841088420ADD89
:103C7000FFE7BDF88600ADF8840045F25E60C0F64F
:103C800000002090FFE72B9ABDF884302898694601
:103C9000086045F2F851C0F6000110A80790FCF743
:103CA00047FB0798FDF70AFFBDF88410002040F697
:103CB000B9329142089006DBFFE72898B0FA80F00D
:103CC00040090890FFE7089800F001000F902B9939
:103CD00000203129C8BF01200E900F9828B9FFE7B6
:103CE0000E98002800F05681FFE70F9A45F24261D6
:103CF000C0F6000145F24A60C0F60000002A18BF75
:103D000008460D90BDF884006421484340F6010147
:103D1000C0F28001A0FB0110C0080C902A9A501C30
:103D20002A90299B0C98DDF880C0DDF834E06946C4
:103D3000C1F808E0C1F804C0086040F2C060C2F2F7
:103D4000000045F20D71C0F60001FCF7F1FA0B908E
:103D500040F26800C2F2000045F20571C0F60001B1
:103D60003222FEF79DFE8DF8B3009DF8B300C8B96E
:103D7000FFE740F26800C2F20000069045F23161B0
:103D8000C0F6000140F2C062C2F20002FFF72CF858
:103D90000698FEF70FFE45F27840C0F60000FDF7EA
:103DA0008DFE06E045F2AB30C0F60000FDF786FE62
:103DB000FFE70F9800285FD0FFE740F2C040C2F253
:103DC000000045F22231C0F60001FCF7B1FA0A907A
:103DD00045F21B50C0F60000FDF770FE45F2DC50C6
:103DE000C0F60000FDF768FC6420FDF783FC45F297
:103DF0009650C0F60000FDF75FFC45F25160C0F63A
:103E0000000042F21071FDF797FC48B3FFE70A9AF1
:103E100040F2C070C2F20000059045F22161C0F688
:103E20000001FCF785FA0598FDF746FC45F239607C
:103E3000C0F600004FF47A71FDF77EFC78B1FFE721
:103E400040F2C040C2F20000FDF736FC45F23B6094
:103E5000C0F600004FF4FA71FDF76EFCFFE708E0D2
:103E600045F22C40C0F60000FDF728FEFDF7FCFCF3
:103E7000FFE70F202890FFE70B9A40F2C040C2F204
:103E8000000045F26A61C0F6000140F2C063C2F270
:103E90000003FCF74DFA099045F2DC50C0F6000033
:103EA000FDF70AFCFA20FDF725FC45F2EA50C0F6C2
:103EB0000000FDF701FC45F24760C0F600004FF43A
:103EC000FA71FDF739FCFDF7CFFC45F29A40C0F6D8
:103ED0000000FDF7F3FD45F26B50C0F60000FDF762
:103EE000EBFB45F25160C0F600004FF4FA51FDF7CC
:103EF00023FCD0B3FFE7099A40F2C070C2F2000081
:103F0000049045F22161C0F60001FCF711FA049813
:103F1000FDF7D2FB45F23960C0F600004FF47A712C
:103F2000FDF70AFC40F2C040C2F20000FDF7C4FBFE
:103F300045F23560C0F6000040F6B831FDF7FCFBF5
:103F400048B1FFE7FDF790FC45F28A30C0F600006B
:103F5000FDF7B4FD08E045F24550C0F60000FDF75E
:103F6000ADFDFDF781FCFFE708E045F25040C0F6EB
:103F70000000FDF7A3FDFDF777FCFFE745F2DC50FD
:103F8000C0F60000FDF798FB00202B90FA20FDF70B
:103F9000B1FBFFE7B3E5000080B590B00E900D9146
:103FA0008DF833200D99002008600E98FFF7D2FCA1
:103FB0000B900B98B0F1FF3F04DCFFE70B208DF86E
:103FC0003F00ECE10B9940F26000C2F2000050F8B3
:103FD00021000A900A9820B9FFE70C208DF83F00D5
:103FE000DDE10A980D9908609DF8330000F0FE00AD
:103FF0008DF833000A980078F0B1FFE70A9840780E
:10400000FEF754FC8DF827009DF82700C00790B9F3
:10401000FFE79DF8330050B1FFE79DF82700400708
:10402000002804D5FFE70A208DF83F00B7E1002003
:104030008DF83F00B3E1FFE70A99002008700A9865
:104040004078FEF721FB8DF827009DF82700C00778
:1040500020B1FFE703208DF83F00A0E19DF8330079
:1040600050B1FFE79DF827004007002804D5FFE77F
:104070000A208DF83F0092E10A980021FFF7DCFA50
:1040800007900798042804D1FFE701208DF83F002E
:1040900085E10798022804D3FFE70D208DF83F0043
:1040A0007DE10A98C06908900A983B30FFF7AAFCA6
:1040B000B0F5007F04D0FFE70D208DF83F006EE1E2
:1040C0000A984630FFF79EFC0490049830B9FFE749
:1040D0000A985430FFF7A8FC0490FFE704980A9967
:1040E00088610A9991F84000C8700A98C078012840
:1040F00009D0FFE70A98C078022804D0FFE70D2016
:104100008DF83F004BE10A98C17804984843049029
:104110000A9991F83D0048810A98408930B1FFE73B
:104120000A984089411E084204D0FFE70D208DF80F
:104130003F0034E10A984130FFF764FC0A99088196
:104140000A98007A000720B1FFE70D208DF83F00A4
:1041500025E10A984330FFF755FC0690069830B9E0
:10416000FFE70A985030FFF75FFC0690FFE70A98D8
:104170003E30FFF747FCADF80600BDF8060020B959
:10418000FFE70D208DF83F0009E1BDF80600049916
:1041900008440A99098900EB1110059006980599C1
:1041A000884204D2FFE70D208DF83F00F7E0069823
:1041B0000599401A0A994989B0FBF1F003900398D8
:1041C00020B9FFE70D208DF83F00E8E000200790C0
:1041D00003984FF6F571C0F6FF71884203D8FFE7E8
:1041E00003200790FFE703984FF6F571884203D844
:1041F000FFE702200790FFE7039840F6F571884239
:1042000003D8FFE701200790FFE7079820B9FFE7F1
:104210000D208DF83F00C2E0039802300A994861F2
:1042200008980A9908620898BDF8061008440A9987
:1042300048620898059908440A99C86207980328B3
:104240001DD1FFE70A985A30FFF7DCFB20B1FFE7EA
:104250000D208DF83F00A2E00A98008920B1FFE709
:104260000D208DF83F009AE00A985C30FFF7DCFBE8
:104270000A9988620A9840698000029022E00A98B0
:10428000008920B9FFE70D208DF83F0087E00A99EB
:10429000486A049A104488620798022805D1FFE70B
:1042A0000A9840694000009009E00A98406900EBD4
:1042B000400100F0010000EB51000090FFE7009882
:1042C0000290FFE70A988069029901F2FF11B0EBB2
:1042D000512F04D2FFE70D208DF83F005FE00A99CF
:1042E0004FF0FF3008610A99C8600A998020487130
:1042F0000798032843D1FFE70A986030FFF782FB55
:1043000001283CD1FFE70A980899013100F04CF8E8
:10431000A8BBFFE70A99002048710A983030FFF7E0
:1043200083FB45F25221C4F26111884226D1FFE796
:104330000A9800F50570FFF777FB47F27221C6F285
:10434000411188421AD1FFE70A9800F50B70FFF778
:104350006BFB0021CAF6552188420FD1FFE70A986E
:1043600000F50670FFF760FB0A9908610A9800F5EE
:104370000770FFF759FB0A99C860FFE7FFE7079846
:104380000A99087040F26401C2F200010888013005
:1043900008800A99C88000208DF83F00FFE79DF84B
:1043A0003F0010B080BD000080B584B00390029142
:1043B00000208DF8070002980399C96988421ED031
:1043C000FFE7039800F090FA8DF807009DF80700CA
:1043D000A0B9FFE7039948783031029A0123FEF72C
:1043E000EBF938B1FFE74FF0FF30029001208DF874
:1043F0000700FFE702980399C861FFE7FFE79DF810
:10440000070004B080BD000080B58AB00990089113
:10441000079202208DF8130008980228C0F0C98086
:10442000FFE7089809994969884280F0C280FFE750
:104430000998007801460391012809D0FFE7039805
:1044400002286CD0FFE70398032800F08480AFE0D7
:1044500008980690069800EB500006900998416A6B
:10446000069A01EB5221FFF79FFF8DF813009DF88C
:10447000130008B1FFE79BE0099806990A466FF31D
:104480005F22104401310691303005909DF82000E4
:10449000C00750B1FFE70598007800F00F009DF8C5
:1044A0001C1040EA0110029003E09DF81C000290ED
:1044B000FFE7029805990870099901200871099889
:1044C000416A069A01EB5221FFF76EFF8DF8130047
:1044D0009DF8130008B1FFE76AE0099806996FF3A9
:1044E0005F210844303005909DF82000C00728B1B6
:1044F000FFE70798C0F30710019009E005980078DE
:1045000000F0F0000799C1F3032108440190FFE790
:1045100001980599087009990120087148E00998E7
:10452000416A089A01EB1221FFF73EFF8DF8130054
:104530009DF8130008B1FFE73AE009989DF82010B4
:1045400000EB41003030BDF81C1000F019F909995A
:10455000012008712CE00998416A089A01EBD211F8
:10456000FFF722FF8DF813009DF8130008B1FFE755
:104570001EE0079800900998089901F07F0100EB70
:1045800081003030FFF750FA01460098090F61F3BF
:104590001F7007900998089901F07F0100EB8100D6
:1045A0003030079900F002F9099901200871FFE7FE
:1045B000FFE79DF813000AB080BD000080B586B00B
:1045C00005908DF813100598406802900298B0F19C
:1045D000FF3F01DCFFE725E00598806801909DF82A
:1045E00013000599029A114401320292087302984D
:1045F0003C280FDBFFE7059951F80C0B029A03AB3F
:10460000FEF7AEFE03980299401A18BF4FF0FF3034
:104610000290FFE7029805994860019801300599DA
:104620008860FFE706B080BD80B584B00290029834
:104630004068002814D4FFE7029A02F10C011068C8
:10464000526801ABFEF78CFE50B9FFE70298406854
:104650000199884204D1FFE702988068039003E043
:104660004FF0FF300390FFE7039804B080BD0000D7
:1046700080B582B00190009101984C21FBF7E9FED2
:1046800000980199086002B080BD000080B588B034
:1046900006900591049200208DF80F00069800689E
:1046A00001900598022806D3FFE70598019949690A
:1046B000884204D3FFE702208DF81F005CE00498D5
:1046C00090B1FFE7019804994FF0FF32FFF79CFE8D
:1046D0008DF80F009DF80F0028B1FFE79DF80F003F
:1046E0008DF81F0048E0FFE7FFE706980599FFF700
:1046F00093F80290029808B9FFE739E00298012880
:1047000004D1FFE702208DF81F0035E00298013048
:1047100020B9FFE701208DF81F002DE001980599D1
:104720000022FFF771FE8DF80F009DF80F0028B1F1
:10473000FFE79DF80F008DF81F001DE00199086943
:104740004969023988420AD2FFE7019908690130B4
:1047500008610199487940F001004871FFE702982B
:104760000590FFE70598019949698842BDD3FFE7A5
:1047700000208DF81F00FFE79DF81F0008B080BDE6
:1047800082B00190ADF802109DF8020001994A1C18
:10479000019208709DF80300ADF802009DF8020038
:1047A00001994A1C0192087002B0704782B00190D2
:1047B0000091009801994A1C019208700098000A23
:1047C0000090009801994A1C019208700098000A14
:1047D0000090009801994A1C019208700098000A04
:1047E0000090009801994A1C0192087002B070472D
:1047F00080B584B003900291019202981A30BDF8FE
:104800000410FFF7BDFF03980078032807D1FFE7E6
:1048100002981430BDF80610FFF7B2FFFFE704B0AE
:1048200080BD000080B582B00190019800F05CF876
:104830008DF803009DF80300002851D1FFE701988F
:10484000407901283FD1FFE7019900204871019884
:104850000078032836D1FFE7019830304FF400711B
:10486000FBF7F7FD0198303045F25221C4F2611197
:10487000FFF79CFF019800F5057047F27221C6F220
:104880004111FFF793FF019901F506700969FFF7E0
:104890008DFF019901F50770C968FFF787FF01983F
:1048A00000F50B700021CAF65521FFF77FFF019B31
:1048B000587803F130011A6A0132DA610123FEF7F8
:1048C00009F8FFE7FFE70198407800221146FDF75D
:1048D00041FF20B1FFE701208DF80300FFE7FFE76C
:1048E0009DF8030002B080BD80B582B00190002029
:1048F0008DF803000198007960B3FFE7019A5078C2
:1049000002F13001D2690123FDF7E4FFE8B9FFE7C6
:10491000019900200871019A9169D069526A801A40
:10492000884211D2FFE70198C07802280BD1FFE737
:10493000019B587803F13001DA699B691A4401231D
:10494000FDF7C8FFFFE7FFE703E001208DF8030054
:10495000FFE7FFE79DF8030002B080BD80B584B09B
:104960000390029109208DF807000398E8B1FFE752
:1049700003980068C8B1FFE7039800680078A0B109
:10498000FFE7039988880968C98888420DD1FFE745
:10499000039800684078FDF789FFC00720B9FFE75A
:1049A00000208DF80700FFE7FFE79DF8070020B91A
:1049B000FFE703980068009002E000200090FFE706
:1049C0000098029908609DF8070004B080BD5FEA76
:1049D000400C08BF91F0000F4FEA8C234FEAC12230
:1049E00043EA51514FEA1C5018BF00F5F0404FEA1E
:1049F000300018BF41F000415FEA6C5C00F0298094
:104A0000BCF1FF3F08BF40F080407047130C06BF69
:104A100012044FF0100C4FF0000C130E04BF1202E2
:104A20000CF1080C130F04BF12010CF1040C930FCE
:104A300004BF92000CF1020CD30F04BF52000CF122
:104A4000010C11464FF00002A0F11F00A0EB0C007A
:104A5000704711F0004F08BF704731F000413FF43C
:104A6000D5AF0B0C06BF09044FF0100C4FF0000C33
:104A70000B0E04BF09020CF1080C0B0F04BF090157
:104A80000CF1040C8B0F04BF89000CF1020CCB0F4E
:104A900004BF49000CF1010CCCF1200322FA03F30E
:104AA00041EA030102FA0CF2A0EB0C0000F1010054
:104AB0007047000023F07F4720F07F4C80EA03001E
:104AC00000F00040ACEB070303F57C5303F1FF0358
:104AD0002DE9804909B44FEA144324EA03484FEA18
:104AE000154B25EA0B4E0FF2042606EB13273E78F2
:104AF00003FB0667C7F5000707FB06F64FEAD64635
:104B000006F102064FEA543707FB066CCCF1005C55
:104B10004FEA1C472CEA074C0CFB06F507FB06F492
:104B200004EB15464FEA961649085FEA320234BF95
:104B300000204FF000404FEAD13706FB07FC4FEA58
:104B40001C4C0CFB0BF7D21B03FB0CF761EB0701B2
:104B50000CFB0EF7B0EB074072EB17420CFB08F7AB
:104B600034BFA2EB0742B2EB074261EB17414FEAB9
:104B70000C444FEA910706FB07FC4FEA1C4C0CFB68
:104B80000BF7B0EBC74072EB573203FB0CF734BFA7
:104B9000A2EBC742B2EBC74261EB57310CFB0EF7F9
:104BA000B0EBC70072EB57720CFB08F734BFA2EBF7
:104BB000C702B2EBC70261EB57714FEA816141EA6C
:104BC00092114FEA826242EA90124FEA806004EB4F
:104BD000CC04039F4FEAD13706FB07FC4FEA1C4C7D
:104BE0000CFB0BF7D21B03FB0CF761EB07010CFB73
:104BF0000EF7B0EB074072EB17420CFB08F734BF1F
:104C0000A2EB0742B2EB074261EB17414FEA8C552A
:104C100004EB9C244FEA910706FB07FC4FEA1C4C6F
:104C20000CFB0BF7B0EBC74072EB573203FB0CF7F2
:104C300034BFA2EBC742B2EBC74261EB57310CFB6A
:104C40000EF7B0EBC70072EB57720CFB08F734BFDE
:104C5000A2EBC702B2EBC70261EB57714FEA816169
:104C600041EA92114FEA826242EA90124FEA806072
:104C700015EB4C2544F100044FEAD13706FB07FC45
:104C80004FEA1C4C0CFB0BF7D21B03FB0CF761EB40
:104C900007010CFB0EF7B0EB074072EB17420CFB61
:104CA00008F734BFA2EB0742B2EB074261EB1741B2
:104CB0004FEA813141EA92414FEA823242EA904220
:104CC0004FEA80304FEA0C7615EB1C1544F10004D6
:104CD00048EA03434EEA0B484FF0000EB2EB080CD3
:104CE00071EB030724BF624639464EEB0E0E4FF0C0
:104CF000000B0018524149414BEB0B0BB2EB080C77
:104D000071EB03077BF1000B24BF624639464EEB83
:104D10000E0E4FF0000B0018524149414BEB0B0BAC
:104D2000B2EB080C71EB03077BF1000B24BF62466A
:104D300039464EEB0E0E51EA020718BF46F0010647
:104D400016EB0E7655F1000254F1000103D5BDE8D3
:104D50008901BDE80088BDE88901BDE80048B619B1
:104D6000524141EB0101A3F10103704780807F7E36
:104D70007D7C7B7A797877767675747372717170D1
:104D80006F6E6E6D6C6C6B6A6A6968686766666583
:104D90006464636362616160605F5F5E5E5D5D5C11
:104DA0005C5B5B5A5A595958585757565655555582
:104DB0005454535352525251515050504F4F4F4EE2
:104DC0004E4D4D4D4C4C4C4B4B4B4A4A4A49494930
:104DD0004848484747474746464645454544444472
:104DE0004443434343424242424141419C46002B9B
:104DF00030D477002BD04FEA37071CB503B44FF0FF
:104E000010004FF01001BAF1000F06D0BCF1000FF6
:104E1000DCBF40F0080040F008014FF000000FBC7C
:104E2000BDE810400BF1010BBBF1010F08BF5FEAB9
:104E3000170722BF12F1010211F101014FF00041E9
:104E400043F1000300F0004043EA00007047F9D34B
:104E50005708D0E746EA06464FEA164613F1400FD8
:104E60001FDD13F1200FDFBF16430A460021203358
:104E70005B42BED0C3F1200746EA06464FEA16461B
:104E800002FA07F746EA070622FA03F2C3F12007FF
:104E900001FA07F742EA070221FA03F14FF0000393
:104EA000A7E746EA020646EA06464FEA164646EAFB
:104EB0000106BCBF46EA0646360C4FF000034FF031
:104EC00000024FF0000194E72DE9804C70B49A463F
:104ED000934691E8380007C831EA400C48BF34EAED
:104EE000430C03D5FFF7E6FDFFF780FFF0BCBDE8FC
:104EF000008C2DE9804C70B49A46934691E83800B6
:104F000007C810F0804F08BF13F0804F03D100F0A6
:104F100005F8FFF76BFFF0BCBDE8008C20F07F4781
:104F200023F07F4C80EA030000F0004007EB0C0305
:104F3000A3F57C53A3F1FE0392F0000F00F0B380C1
:104F400095F0000F00F077802DE901494FEA1140FC
:104F500021EA00484FEA144624EA064700FB06FC13
:104F600008FB06F607FB08F818EB06484CEB164C56
:104F700000FB07F718EB07484CEB17404FEA124BC2
:104F800022EA0B4E4FEA154625EA06470BFB06FCC4
:104F90000EFB06F607FB0EFE1EEB064E4CEB164C08
:104FA0000BFB07F71EEB074E4CEB174B18EB0B08F0
:104FB00040F1000018EB0E0B58EB000840F1000028
:104FC0008F1A4FF000014FF000063CBFC943661B2B
:104FD00014BFB5EB040C00213CBFC943F61B4FEADC
:104FE000174427EA04454FEA1C472CEA074C04FB08
:104FF000076205FB07F70CFB05F616EB074642EBCD
:10500000174204FB0CFC16EB0C4642EB1C421BEB5C
:10501000060658EB020241414EEA8E0E46EA9E0613
:1050200001D5BDE80189B619524141EB0101A3F157
:105030000103BDE801894FEA144524EA05464FEA19
:10504000114721EA074C05FB07F406FB07F70CFBA9
:1050500006F111EB074144EB174405FB0CFC11EB87
:105060000C4144EB1C444FEA124722EA074C05FB73
:1050700007F206FB07F70CFB06F616EB074642EBBA
:10508000174205FB0CFC16EB0C4642EB1C456A185C
:1050900054F1000148BF7047B619524141EB01017C
:1050A000A3F10103704795F0000F37D04FEA11428A
:1050B00021EA02464FEA144724EA074C02FB07F1B3
:1050C00006FB07F70CFB06F414EB074441EB174112
:1050D00002FB0CFC14EB0C4441EB1C414FEA15475E
:1050E00025EA074C02FB07F506FB07F70CFB06F663
:1050F00016EB074645EB174502FB0CFC16EB0C467E
:1051000045EB1C42121951F1000148BF7047B61916
:10511000524141EB0101A3F1010370474FEA1445ED
:1051200024EA05464FEA114721EA074C05FB07F13F
:1051300006FB07F70CFB06F212EB074241EB1741A7
:1051400005FB0CFC12EB0C4251EB1C414FF000062E
:1051500048BF7047921841EB0101A3F1010370476A
:1051600003B401984100009850EAC12018BF042000
:105170004A0D18BF40F0010040F2FF72B2EB515FE0
:1051800008BF40F00200012808BF052002B07047A8
:1051900030380A2801D201207047002070470000F3
:1051A00010B500290AD00878002807D005487844AF
:1051B000FCF7CAF9002801D0002010BD024878444D
:1051C00010BD0000160600000E06000010B50029F4
:1051D0000AD00878002807D005487844FCF7B4F9CD
:1051E000002801D0002010BD0248784410BD000006
:1051F00006060000FE050000F1EE100A4FF6FF71F2
:10520000C0F2C03120EA010040F04070E1EE100A27
:105210007047FBF7A3BDFBF7D7BE000000000000FE
:1052200000000000303132333435363738394142EE
:1052300043444546403058003031323334353637F8
:1052400038396162636465664030780004000008A4
:1052500000000000000000020001000010303132A8
:105260003334353637383961626364656678700087
:10527000303132333435363738394142434445468C
:105280005850000002400000000000A00000000094
:1052900005400000000000C8000000000C400000B5
:1052A0000000409C00000000194000000020BCBE2F
:1052B0000000000034400000BFC91B8E0000000445
:1052C000B5400000504BCFD06607E2CF0100000090
:1052D0006C4100003E8251AADFEEA73401000000BD
:1052E000D9420000DCB5A0E23A301F97FFFFFFFF74
:1052F000B4450000FD25A0C8E9A3C14FFFFFFFFF93
:10530000FF3F00000000008000000000FF3F0000A1
:105310000000008000000000819FE0FC407E80FCD7
:105320000000474554202F53544D33325F414C45C4
:10533000525420485454502F312E310D0A486F7367
:10534000743A2031302E3131392E3137312E32340A
:10535000370D0A436F6E6E656374696F6E3A206332
:105360006C6F73650D0A0D0A0041542B43574A4177
:10537000503D22456467654E6F6465222C2273366A
:10538000403233333337220D0A000D0A2D2D2D20E4
:10539000436C6F7564204461746120416363657080
:1053A00074656421202D2D2D0D0A000D0A2D2D2D43
:1053B000205344204361726420577269746520450C
:1053C00072726F7221202D2D2D0D0A000D0A2D2DC8
:1053D0002D2053442043617264204D6F756E7465B7
:1053E00064205375636365737366756C6C792120F3
:1053F0002D2D2D0D0A000D0A2D2D2D205344204357
:10540000617264204D6F756E74204641494C45446D
:105410002120436865636B20576972696E672F4668
:10542000617446732E202D2D2D0D0A000D0A2D2D91
:105430002D2048617074696320416C65727420543A
:105440004350204661696C6564202D2D2D0D0A00A6
:105450000D0A2D2D2D20436C6F7564205443502070
:10546000436F6E6E656374696F6E204661696C652B
:1054700064202D2D2D0D0A000D0A2D2D2D20536198
:1054800076656420746F204D6963726F53442043C6
:10549000617264202D2D2D0D0A000D0A2D2D2D2059
:1054A00053656E64696E672054656C656D657472D2
:1054B0007920746F20436C6F7564202D2D2D0D0A9B
:1054C000000D0A2D2D2D20536574757020436F6DCE
:1054D000706C657465202D2D2D0D0A000D0A2D2D83
:1054E0002D20496E697469616C697A696E6720570D
:1054F000694669202D2D2D0D0A000D0A2D2D2D2018
:10550000436F6E6E656374696E6720746F20526FAF
:1055100075746572202D2D2D0D0A000D0A2D2D2D6F
:105520002054726967676572696E67204C6F6361AA
:105530006C2048617074696320416C657274202D21
:105540002D2D0D0A000D0A2D2D2D20436C6F756435
:105550002044617461204661696C65642F54696DF3
:10556000656F7574202D2D2D0D0A0041542B434974
:105570005053544152543D22544350222C227468BB
:10558000696E6773626F6172642E636C6F756422FB
:105590002C38300D0A0041542B434950535441528A
:1055A000543D22544350222C2231302E3131392E99
:1055B0003137312E323437222C383038300D0A0052
:1055C00041542B4349504D55583D300D0A0041542C
:1055D0002B43574D4F44453D310D0A0041542B4359
:1055E0004950434C4F53450D0A0041540D0A0041A8
:1055F000542B5253540D0A004C6F6F703A2025649F
:10560000207C205065616B20566F6C3A2025642009
:105610007C20436F6F6C646F776E3A2025640D0AAF
:105620000041542B43495053454E443D25640D0AD7
:105630000025730A00323030003E00434C4F534582
:10564000440048494748004F4B004D454449554D9B
:1056500000434F4E4E454354004C4546540052497A
:105660004748540046524F4E5400504F5354202F39
:105670006170692F76312F70336D6C616C38636B9C
:10568000646275676E7474676D6E6D2F74656C659A
:105690006D6574727920485454502F312E310D0AA3
:1056A000486F73743A207468696E6773626F6172D1
:1056B000642E636C6F75640D0A436F6E74656E744F
:1056C0002D547970653A206170706C6963617469FA
:1056D0006F6E2F6A736F6E0D0A436F6E6E65637423
:1056E000696F6E3A20636C6F73650D0A436F6E7459
:1056F000656E742D4C656E6774683A2025640D0ADA
:105700000D0A2573006C6F672E747874007B226419
:1057100065766963655F6964223A2253544D33327A
:105720005F4131222C226576656E745F6964223A8E
:1057300025642C226576656E745F74696D65223A06
:1057400025752C22696E74656E73697479223A30FE
:105750002E253032642C226475726174696F6E5F1D
:105760006D73223A3330302C226469726563746938
:105770006F6E223A222573222C227072696F726931
:105780007479223A222573222C22636F6E66696433
:10579000656E6365223A302E38367D0046415433BB
:1057A00032202020002A2B2C3A3B3C3D3E5B5D7C86
:1057B000223F7F00F058000800000020E00D0000AC
:1057C000FC0100081C00000043000000F8FFFFFF80
:1057D0000C0000000E0000000F0000002E00000072
:1057E0001001000043000000F8FFFFFF00404040B0
:1057F00040404040404041414141414040404040A4
:10580000404040404040404040404040400502024F
:10581000020202020202020202020202022020200E
:10582000202020202020200202020202020290906A
:105830009090909010101010101010101010101068
:1058400010101010101010100202020202028888BC
:1058500088888888080808080808080808080808C8
:1058600008080808080808080202020240000000B0
:105870000000000000000000000000000000000028
:105880000000000000000000000000000000000018
:105890000000000000000000000000000000000008
:1058A00000000000000000000000000000000000F8
:1058B00000000000000000000000000000000000E8
:1058C00000000000000000000000000000000000D8
:1058D00000000000000000000000000000000000C8
:1058E00000000000000000000000000000000000B8
:04000005080002F1FC
:00000001FF
